:1000000000308A003D280000F801F901F701FA01EB
:100010003C08031D0E283B08031928281030BD009A
:100020000310B90DBA0DF70DFA0D3C087A02031D45
:100030001B283B087702031C24283B08F702031CFB
:10004000FA033C08FA020314F80DF90DBD0B102851
:100050000034373084008313000803193C2806302D
:10006000F800F701F70B3228F80B31287B30F70046
:10007000F70B3828800B2F280034840183131F309E
:100080008305831603170908C039890003131F125B
:100090009F12003003178800073083128700FF305B
:1000A00088008901831603139701031785018312C2
:1000B00003132E122E0883168700C0308312A0006F
:1000C000F930A100A430A200B030A3009930A40000
:1000D0009230A5008230A600F830A7008030A8003A
:1000E0009030A9003830AA003930AB003A30AC006B
:1000F0003B30AD00FF30AE008316880187018312CC
:100100008701B001AF013008273C031C3D29031DC6
:100110008D282F080F3C031C3D293008BA002F08FA
:10012000B9000330BC00E830BB0004207808B300FD
:100130003008BA002F08B9000330BC00E830BB001B
:1001400004207708B7007A08B800BA007708B90029
:10015000BC016430BB0004207808B4003008BA0049
:100160002F08B900BC016430BB0004207708B70039
:100170007A08B800BA007708B900BC010A30BB00A1
:1001800004207808B5003008BA002F08B900BC0177
:100190006430BB0004207708B7007A08B800BA00C2
:1001A0007708B900BC010A30BB0004207708B6000C
:1001B000B201B101B208031D39293108F93C031C11
:1001C0003929AE112E088316870083128715203037
:1001D000360784008313000888000130B700292007
:1001E000AE112E0883168700831287112E112E0858
:1001F0008316870083120715203035078400831388
:10020000000888000130B70029202E112E0883161F
:10021000870083120711AE102E0883168700831201
:1002200087142030340784008313000888000130CD
:10023000B7002920AE102E0883168700831287107E
:100240002E102E08831687008312071420303307E0
:1002500084008313000888000130B70029202E1085
:100260002E088316870083120710B10A0319B20AF9
:0E027000DA28AF0A0319B00A83288128630038
:04400E00E22CFF3F62
:00000001FF
;PIC16F887
