:1000000000308A004E280000831609108312091060
:10001000B4013408073C031C262833088039031D2B
:10002000162883168910831289101A2883168910BE
:10003000831289140310B30D831609108312091457
:100040008316091083120910B40A09288A110A12AA
:10005000A12883160911831209110830F700F70B44
:100060002F2883160911831209158A110A12A22852
:10007000333084008313000803194B280630F8003E
:10008000F701F70B4128F80B40287B30F700F70BFE
:100090004728800B3E288A110A12A728840183135F
:1000A0001F308305831603170908C039890003131D
:1000B0001F129F1200300317880007308312870039
:1000C000FF30880089018316031397010317850108
:1000D000831203133012300883168700C030831256
:1000E000A000F930A100A430A200B030A3009930E4
:1000F000A4009230A5008230A600F830A70080301E
:10010000A8009030A9008830AA008330AB00C63028
:10011000AC00A130AD008630AE008E30AF00FF30B5
:10012000B000831689018312B1013108103C031C11
:10013000AB2820303107840083130008B200B300DD
:10014000042829280430B200FA30B3003828B20B52
:0A015000A428B10A95289428630042
:04400E00E22CFF3F62
:00000001FF
;PIC16F887
