:1000000000308A001A28000033308400831300086F
:10001000031917280630F800F701F70B0D28F80B25
:100020000C287B30F700F70B1328800B0A288A1165
:100030000A127228840183131F3083058316031765
:100040000908C039890003131F129F1200300317DB
:100050008800073083128700FF30880089018316EB
:10006000031397010317850183120313301230081D
:1000700083168700C0308312A000F930A100A4309D
:10008000A200B030A3009930A4009230A5008230C5
:10009000A600F830A7008030A8009030A900883072
:1000A000AA008330AB00C630AC00A130AD00863072
:1000B000AE008E30AF00FF30B00083168801FF30F5
:1000C00083128800B1013108103C031C76282030CF
:1000D000310784008313000888000430B200FA302E
:1000E000B3000428B20B6F28B10A632862286300AA
:04400E00E22CFF3F62
:00000001FF
;PIC16F887
