:1000000000308A00AF2A00000A108A100A11820705
:10001000533475346E3400340A108A100A11820782
:100020004D346F346E3400340A108A100A1182077E
:1000300054347534733400340A108A100A1182075C
:1000400057346534643400340A108A100A11820768
:1000500054346834753400340A108A100A11820747
:1000600046347234693400340A108A100A11820747
:1000700053346134743400340A108A100A11820730
:1000800041344D3400340A108A100A11820750346A
:100090004D34003438184E2808124F28081683169D
:1000A00008128312B8185628881257288816831603
:1000B0008812831238195E2808135F2808178316E0
:1000C00008138312B81966288813672888178316BF
:1000D0008813831200343830840083130008031916
:1000E0007E280630F800F701F70B7428F80B732808
:1000F0007B30F700F70B7A28800B712800348316C9
:100100008811831288150430F700F70B852888289A
:1001100083168811831288110330B8006B200034D5
:10012000B70E3708B8004A207F20B70E3708B8004E
:100130004A207F200034B8014A20C830B8006B2024
:1001400083168810831288100330B8004A207F205D
:100150007F207F200230B8004A207F202C30B7005B
:1001600090200C30B70090200630B700902001306E
:10017000B70090208A110A12D92A0830F8000430FA
:10018000F700F70BC1288711A211220883168700F8
:100190000330F700F70BCA288312B90D0712031CAE
:1001A000D7282216220883168700DB288312221202
:1001B00022088316870000008312A21522088316E6
:1001C00087008312871DE228F80BBF280430F70050
:1001D000F70BE8288711A211220883168700000078
:1001E000831222162208831687000330F700F70BCC
:1001F000F7280330F700F70BFB288312A21522081B
:10020000831687008312871D0329F8010330F70046
:10021000F70B0829071A78148711A21122088316F0
:100220008700831207122212220883168700831286
:1002300000340830BA007708BB0022162208831663
:1002400087000330F700F70B23298312A215220839
:10025000831687008312871D2B29071A0314071E94
:100260000310F80D0430F700F70B3429A21122080F
:100270008316870083128711BA0B1D2922162208C4
:10028000831687000330F700F70B44298312071207
:100290003B08031950292212220883168700831273
:1002A0000000A2152208831687008312871D562995
:1002B0000430F700F70B5A298711A2112208831680
:1002C00087000330F700F70B63298312071222120D
:1002D00022088316870083128A110A12C129B801E5
:1002E00022162208831687000430F700F70B7629C0
:1002F0008312A2152208831687000330F700F70B3C
:100300007F298312071222122208831687000430E5
:10031000F700F70B892983128711A211220883168F
:100320008700D0308312B900BD203708B900BD2046
:1003300022162208831687000430F700F70B9E2947
:100340008312A2152208831687000330F700F70BEB
:10035000A7298312871DAA290712221222088316B1
:1003600087000430F700F70BB32983128711A2111D
:10037000220883168700D1308312B900BD20F7010F
:1003800019297808B8002212220883168700000075
:100390008312A2152208831687008312871DCE2997
:1003A0000430F700F70BD229D529000022162208C5
:1003B000831687000430F700F70BDC298312380816
:1003C000F8000034F701F8013C0803103D18F70766
:1003D000F70CF80CBD18F707F70CF80C3D19F707E8
:1003E000F70CF80CBD19F707F70CF80C3D1AF707D6
:1003F000F70CF80CBD1AF707F70CF80C3D1BF707C4
:10040000F70CF80CBD1BF707F70CF80C8A110A1251
:10041000182A37080F39B8003708F039F700F70EF7
:100420000F30F7057708BB00BC000A30BD00E22999
:1004300078083807F8000034B00E30080838B100EA
:10044000B8004A207F20B00E3008B8004A207F2034
:1004500000343708F80136020318312A3608F7004D
:100460003D2AF7010830B800B60DF70D37087702BE
:100470000318F700F80DB80B342A003483168810DF
:10048000831288143608B7009020831688108312D0
:10049000881000342030311E3030B2003008F700B0
:1004A000B01F592AF709F70A7708B0002D30B200BB
:1004B000B1173008B6006430B70029227708B000C1
:1004C00030307807B3003008B6000A30B700292270
:1004D00030307707B50030307807B4003208F700C5
:1004E000B11D742AB11F3111311A812AB11F9C2A02
:1004F00031199C2A7708B300B1189C2A7708B400F8
:100500009C2A30303302031D9C2A7708B300203028
:10051000B200B11D8F2A3111B114B11FB1103030AA
:100520003402031D9C2A7708B4002030B300B11DAB
:100530008F2AB110B11F3110311DA12A3208B60027
:100540003E22B11CA62A3308B6003E22311CAB2A3B
:100550003408B6003E223508B6003E22003484013D
:1005600083131F308305831603170908C0398900D8
:1005700003131F129F1200300317880007308312E5
:100580008700FF3088008901831603139701031742
:100590008501831203132212220883168700831217
:1005A000A001A101FF30A2008316081183120811D7
:1005B0009B2800302A180130B0003008B100B20189
:1005C000B7016F217808A3002308B7000922780833
:1005D000A3000130B7006F217808A4002408B700F9
:1005E00009227808A4003108013A031D162B0230B5
:1005F000B7006F217808B2002030B205320EF70044
:10060000F70C0730F7057708F8007718092BAA10C0
:100610000A2BAA140230B7006F2178081F39A500F1
:100620002508B70009227808A500222B0230B70060
:100630006F2178083F39A5002508B70009227808FE
:10064000A500222B0630B7006F217808A9002908E1
:10065000B70009227808A9000530B7006F21780893
:100660001F39A8002808B70009227808A80004301C
:10067000B7006F2178083F39A7002708B700092283
:100680007808A7000330B7006F2178080739A60063
:100690002608B70009227808A6000130B70090208C
:1006A00000302A180130B0003008B100B201B701A3
:1006B0006F217808A3002308B70009227808A30057
:1006C0000130B7006F217808A4002408B700092280
:1006D0007808A4003108013A031D8D2B0230B700C1
:1006E0006F217808B2002030B205320EF700F70C07
:1006F0000730F7057708F8007718802BAA10812BB0
:10070000AA140230B7006F2178081F39A500250808
:10071000B70009227808A500992B0230B7006F2195
:1007200078083F39A5002508B70009227808A500F8
:10073000992B0630B7006F217808A9002908B70067
:1007400009227808A9000530B7006F2178081F3901
:10075000A8002808B70009227808A8000430B700CC
:100760006F2178083F39A7002708B70009227808C9
:10077000A7000330B7006F2178080739A6002608C4
:10078000B70009227808A60001302602F93E0318B6
:10079000422C073EBB2CB001B1012B3084008313E7
:1007A0003008840731080420800000380319DB2B4F
:1007B000B10AB00ACD2B422CB001B1012B3084001C
:1007C00083133008840731080C2080000038031997
:1007D000EC2BB10AB00ADE2B422CB001B1012B3058
:1007E0008400831330088407310814208000003807
:1007F0000319FD2BB10AB00AEF2B422CB001B10155
:100800002B30840083133008840731081C208000BB
:10081000003803190E2CB10AB00A002C422CB0018A
:10082000B1012B3084008313300884073108242061
:100830008000003803191F2CB10AB00A112C422C79
:10084000B001B1012B3084008313300884073108D4
:100850002C20800000380319302CB10AB00A222C59
:10086000422CB001B1012B3084008313300884077F
:1008700031083420800000380319412CB10AB00A35
:10088000332C422C0030AA180130003A03194C2CAA
:10089000013A03195D2C6E2CB001B1012E30840099
:1008A00083133008840731083C2080000038031986
:1008B0005C2CB10AB00A4E2C6E2CB001B1012E3066
:1008C00084008313300884073108432080000038F7
:1008D00003196D2CB10AB00A5F2C6E2C0330B000E6
:1008E0001C222508B0000130B1004A223A30B6007F
:1008F0003E222408B0000130B1004A223A30B6004E
:100900003E222308B0000130B1004A222030B60058
:100910003E222E08B6003E222F08B6003E2241306D
:10092000B0001C222B08B6003E222C08B6003E2246
:100930002D08B6003E222D30B6003E222708B0001A
:100940000130B1004A222D30B6003E222808B00006
:100950000130B1004A222D30B6003E223230B600BE
:100960003E223030B6003E222908B0000130B100EE
:100970004A22502B63000A108A100A158207CB2BDB
:0C098000DC2BED2BFE2B0F2C202C312C3F
:04400E00E22FFF3F5F
:00000001FF
;PIC16F887
