:1000000000308A00762B00000A108A100A1182073D
:10001000533475346E3400340A108A100A11820782
:100020004D346F346E3400340A108A100A1182077E
:1000300054347534733400340A108A100A1182075C
:1000400057346534643400340A108A100A11820768
:1000500054346834753400340A108A100A11820747
:1000600046347234693400340A108A100A11820747
:1000700053346134743400340A108A100A11820730
:1000800041344D3400340A108A100A11820750346A
:100090004D34003438184E2808124F28081683169D
:1000A00008128312B8185628881257288816831603
:1000B0008812831238195E2808135F2808178316E0
:1000C00008138312B81966288813672888178316BF
:1000D0008813831200343830840083130008031916
:1000E0007E280630F800F701F70B7428F80B732808
:1000F0007B30F700F70B7A28800B712800348316C9
:100100008811831288150430F700F70B852888289A
:1001100083168811831288110330B8006B200034D5
:10012000B70E3708B8004A207F20B70E3708B8004E
:100130004A207F200034B8014A20C830B8006B2024
:1001400083168810831288100330B8004A207F205D
:100150007F207F200230B8004A207F202C30B7005B
:1001600090200C30B70090200630B700902001306E
:10017000B70090208A110A12A02B3B08F8013A021E
:100180000318C5283A08F700D128F7010830BC0049
:10019000BA0DF70D3B0877020318F700F80DBC0BFA
:1001A000C82800343608BA000A30BB00BD20780EDB
:1001B000F700F030F7057708F039B9003608BA00D3
:1001C0000A30BB00BD2077080F393904F80000342D
:1001D0000830F8000430F700F70BEC288711A21163
:1001E0002208831687000330F700F70BF5288312E7
:1001F000B90D0712031C0229221622088316870054
:100200000629831222122208831687000000831217
:10021000A2152208831687008312871D0D29F80B6B
:10022000EA280430F700F70B13298711A2112208DE
:100230008316870000008312221622088316870087
:100240000330F700F70B22290330F700F70B2629BC
:100250008312A2152208831687008312871D2E2978
:10026000F8010330F700F70B3329071A78148711C8
:10027000A211220883168700831207122212220875
:100280008316870083120034221622088316870003
:100290000430F700F70B4A298312A21522088316AF
:1002A00087000330F700F70B53298312071222123D
:1002B0002208831687000430F700F70B5D298312AC
:1002C0008711A211220883168700D0308312B9004B
:1002D000E8203708B900E8203808B900E8202212E1
:1002E00022088316870000008312A21522088316B5
:1002F00087008312871D7A290430F700F70B7E29C7
:100300008129000022162208831687000430F70096
:10031000F70B882983120034B5013208B600D220C9
:100320007808B600B7017808B80044213108B60053
:10033000D2207808B6000130B7007808B800442110
:100340003408013A031DBB293308013A031DAB29C8
:100350006030B500AE294030B500AE293008B60097
:10036000D22078081F393504B6000230B7003608AD
:10037000B8004421C7293008B600D22078083F3998
:10038000B6000230B7003608B8004421C7298A11E8
:100390000A12A92B3008B600D2207808B400033026
:1003A000B7007808B80044213108B600D220780898
:1003B000B4000430B7007808B80044213208B60011
:1003C000D2207808B4000530B7007808B80044217E
:1003D0003308B600D2207808B4000630B700780899
:1003E000B80044218A110A12B22B0830BA007708EB
:1003F000BB0022162208831687000330F700F70B94
:10040000FF298312A2152208831687008312871DF5
:10041000072A071A0314071E0310F80D0430F7000B
:10042000F70B102AA2112208831687008312871166
:10043000BA0BF92922162208831687000330F70029
:10044000F70B202A831207123B0803192C2A2212C9
:1004500022088316870083120000A2152208831643
:1004600087008312871D322A0430F700F70B362AE3
:100470008711A2112208831687000330F700F70BBB
:100480003F2A831207122212220883168700831242
:100490008A110A129D2AB8012216220883168700A3
:1004A0000430F700F70B522A8312A2152208831694
:1004B00087000330F700F70B5B2A83120712221222
:1004C0002208831687000430F700F70B652A831291
:1004D0008711A211220883168700D0308312B90039
:1004E000E8203708B900E820221622088316870082
:1004F0000430F700F70B7A2A8312A215220883161C
:1005000087000330F700F70B832A8312871D862AA2
:10051000071222122208831687000430F700F70B17
:100520008F2A83128711A211220883168700D130E7
:100530008312B900E820F701F5297808B8002212E3
:1005400022088316870000008312A2152208831652
:1005500087008312871DAA2A0430F700F70BAE2A02
:10056000B12A000022162208831687000430F70003
:10057000F70BB82A83123808F8000034F701F801A5
:100580003C0803103D18F707F70CF80CBD18F707E7
:10059000F70CF80C3D19F707F70CF80CBD19F70725
:1005A000F70CF80C3D1AF707F70CF80CBD1AF70713
:1005B000F70CF80C3D1BF707F70CF80CBD1BF70701
:1005C000F70CF80C8A110A12F42A37080F39B80010
:1005D0003708F039F700F70E0F30F7057708BB0042
:1005E000BC000A30BD00BE2A78083807F800003485
:1005F000B00E30080838B100B8004A207F20B00E95
:100600003008B8004A207F200034831688108312F7
:1006100088143608B700902083168810831288103B
:1006200000342030311E3030B2003008F700B01FE7
:10063000202BF709F70A7708B0002D30B200B11768
:100640003008BA006430BB00BD207708B0003030FD
:100650007807B3003008BA000A30BB00BD20303044
:100660007707B50030307807B4003208F700B11DC5
:100670003B2BB11F3111311A482BB11F632B31199C
:10068000632B7708B300B118632B7708B400632B92
:1006900030303302031D632B7708B3002030B200E3
:1006A000B11D562B3111B114B11FB11030303402CD
:1006B000031D632B7708B4002030B300B11D562B07
:1006C000B110B11F3110311D682B3208B60005235F
:1006D000B11C6D2B3308B6000523311C722B340876
:1006E000B60005233508B6000523003484018313C2
:1006F0001F308305831603170908C03989000313C7
:100700001F129F12003003178800073083128700E2
:10071000FF308800890183160313970103178501B1
:100720008312031322122208831687008312A0016A
:10073000A101FF30A20083160811831208119B2823
:100740000930B0000D30B100B2010130B300B40087
:100750008C290230B0001230B1000430B2001030E9
:10076000B300CA2900302A180130B0003008B100A7
:10077000B201B7014B227808A3002308B700E52295
:100780007808A3000130B7004B227808A4002408A1
:10079000B700E5227808A4003108013A031DEF2BC9
:1007A0000230B7004B227808B2002030B205320E7A
:1007B000F700F70C0730F7057708F8007718E22BF9
:1007C000AA10E32BAA140230B7004B2278081F3975
:1007D000A5002508B700E5227808A500FB2B02300C
:1007E000B7004B2278083F39A5002508B700E5225D
:1007F0007808A500FB2B0630B7004B227808A9002B
:100800002908B700E5227808A9000530B7004B2277
:1008100078081F39A8002808B700E5227808A80042
:100820000430B7004B2278083F39A7002708B700EB
:10083000E5227808A7000330B7004B227808073973
:10084000A6002608B700E5227808A6000130B70008
:10085000902000302A180130B0003008B100B201F9
:10086000B7014B227808A3002308B700E5227808D7
:10087000A3000130B7004B227808A4002408B70079
:10088000E5227808A4003108013A031D662C0230E5
:10089000B7004B227808B2002030B205320EF700C4
:1008A000F70C0730F7057708F8007718592CAA10CD
:1008B0005A2CAA140230B7004B2278081F39A50021
:1008C0002508B700E5227808A500722C0230B70091
:1008D0004B2278083F39A5002508B700E5227808A3
:1008E000A500722C0630B7004B227808A900290811
:1008F000B700E5227808A9000530B7004B22780838
:100900001F39A8002808B700E5227808A80004309D
:10091000B7004B2278083F39A7002708B700E52227
:100920007808A7000330B7004B2278080739A600E3
:100930002608B700E5227808A60001302602F93E15
:1009400003181B2D073E942DB001B1012B308400FC
:10095000831330088407310804208000003803190D
:10096000B42CB10AB00AA62C1B2DB001B1012B305A
:10097000840083133008840731080C20800000387D
:100980000319C52CB10AB00AB72C1B2DB001B10157
:100990002B30840083133008840731081420800032
:1009A00000380319D62CB10AB00AC82C1B2DB0018F
:1009B000B1012B30840083133008840731081C20D8
:1009C000800000380319E72CB10AB00AD92C1B2D7E
:1009D000B001B1012B308400831330088407310843
:1009E0002420800000380319F82CB10AB00AEA2C40
:1009F0001B2DB001B1012B30840083133008840714
:100A000031082C20800000380319092DB10AB00AE2
:100A1000FB2C1B2DB001B1012B3084008313300857
:100A20008407310834208000003803191A2DB10AD8
:100A3000B00A0C2D1B2D0030AA180130003A031902
:100A4000252D013A0319362D472DB001B1012E3065
:100A5000840083133008840731083C20800000386C
:100A60000319352DB10AB00A272D472DB001B10168
:100A70002E3084008313300884073108432080001F
:100A800000380319462DB10AB00A382D472D03301E
:100A9000B000F8222508B0000130B10011233A302F
:100AA000B60005232408B0000130B10011233A300C
:100AB000B60005232308B0000130B1001123203017
:100AC000B60005232E08B60005232F08B60005231F
:100AD0004130B000F8222B08B60005232C08B600E0
:100AE00005232D08B60005232D30B6000523270861
:100AF000B0000130B10011232D30B60005232808C5
:100B0000B0000130B10011232D30B6000523323082
:100B1000B60005233030B60005232908B0000130A7
:100B2000B1001123292C63000A148A100A158207C8
:0E0B3000A42CB52CC62CD72CE82CF92C0A2DA1
:04400E00E22FFF3F5F
:00000001FF
;PIC16F887
