:1000000000308A00032900000A108A100A118207B2
:1000100052346534613464342034413444344334DC
:100020003A3400342E18162808121728081683169A
:1000300008128312AE181E2888121F2888168316ED
:10004000881283122E1926280813272808178316CA
:1000500008138312AE192E2888132F2888178316A9
:100060008813831200342E30840083130008031990
:1000700046280630F800F701F70B3C28F80B3B2820
:100080007B30F700F70B4228800B392800348316A9
:100090008811831288150430F700F70B4D2850287B
:1000A00083168811831288110330AE003320003488
:1000B000AD0E2D08AE0012204720AD0E2D08AE006B
:1000C000122047200034AE011220C830AE00332089
:1000D00083168810831288100330AE001220472048
:1000E000472047200230AE00122047202C30AD00C0
:1000F00058200C30AD0058200630AD00582001309B
:10010000AD0058208A110A122B29A30E23080838A3
:10011000A400AE0012204720A30E2308AE00122038
:100120004720003483168810831288142C08AD00F1
:10013000582083168810831288100034AB010408FD
:10014000AA002B10831B2B14240EF038A600A60740
:10015000E23EA700323EA90024080F39A707A707EF
:10016000A907E93EA800A807A807230E0F39A8078A
:10017000A907A80DA90DA909A90D23080F39A907D9
:10018000A60D0730A5000A30A907A803031CC42840
:10019000A807A703031CC828A707A603031CCC288D
:1001A000A607A503031CD02825308400831307303D
:1001B0002A052A1384072930040203192A17000884
:1001C000F700031DEB282A1BEB282A1AFD28AA1981
:1001D000EB282030EE28AA152A123030F707A401A8
:1001E0000408A3002410831B24147708AC00922079
:1001F00023088400831324188317840A2A1FDB280A
:100200008A110A125E29840183131F308305831625
:1002100003170908C039890003131F129F12003009
:1002200003178800073083128700FF308800890198
:1002300083160313970103178501831203132012FA
:10024000200883168700FF308312A0008316081150
:100250008312081163280130AD005820A3018520C6
:10026000A30123080420003803193A29A30AAC008B
:10027000922031291F179F1783169F1783121F146F
:100280000C30F8001F08C33978049F001030F700C5
:10029000F70B482900009F149F184C2983161E084D
:1002A0008312A1001E08A2000930A300852010308F
:1002B00084002208A4002108A3009E280430A30083
:0E02C000FA30AE003320A30B60294B296300F7
:04400E00E22FFF3F5F
:00000001FF
;PIC16F887
