:1000000000308A000A2900000A108A100A118207AB
:1000100052346534613464342034413444344334DC
:100020003A3400340A108A100A11820742346934C3
:100030006E343A34003447181F2808122028081656
:10004000831608128312C7182728881228288816B2
:1000500083168812831247192F280813302808178F
:10006000831608138312C71937288813382888176E
:1000700083168813831200344730840083130008EA
:1000800003194F280630F800F701F70B4528F80B45
:1000900044287B30F700F70B4B28800B42280034B4
:1000A00083168811831288150430F700F70B562841
:1000B000592883168811831288110330C7003C2009
:1000C0000034C60E4608C7001B205020C60E460846
:1000D000C7001B2050200034C7011B20C830C700B8
:1000E0003C2083168810831288100330C7001B2021
:1000F0005020502050200230C7001B2050202C30B0
:10010000C60061200C30C60061200630C6006120A8
:100110000130C60061208A110A123329BA0E3A084A
:100120000838BB00C7001B205020BA0E3A08C70091
:100130001B20502000348316881083128814450831
:10014000C600612083168810831288100034C40111
:100150000408C3004410831B44143D0EF038BF0054
:10016000BF07E23EC000323EC2003D080F39C00763
:10017000C007C207E93EC100C107C1073C0E0F39E5
:10018000C107C207C10DC20DC209C20D3C080F391B
:10019000C207BF0D0730BE000A30C207C103031CEF
:1001A000CD28C107C003031CD128C007BF03031C0F
:1001B000D528BF07BE03031CD9283E308400831313
:1001C00007304305431384074230040203194317E1
:1001D0000008F700031DF428431BF428431A0629DE
:1001E000C319F4282030F728C31543123030F7071D
:1001F000BD010408BC003D10831B3D147708C500F9
:100200009B203C08840083133D188317840A431FF6
:10021000E4280034840183131F30830583160317F9
:100220000908C039890003131F129F1200300317F9
:100230008800073083128700FF3088008901831609
:10024000031397010317850183120313201220085B
:1002500083168700FF308312A000831689010811DE
:10026000831208116C280130C60061201F179F17E8
:1002700083169F1783121F140C30F8001F08C33910
:1002800078049F001030F700F70B442900009F14FA
:100290009F18482983161E088312A1001E08A20079
:1002A0008316091089100911831221088900BA01E7
:1002B0008E20BA013A080420003803196329BA0ACB
:1002C000C5009B205A290930BA008E2010308400C6
:1002D0002208BD002108BC00A720B701A108031D0A
:1002E0007429A208031987290310370D233E8400BF
:1002F000831321080139F700FA0177088000840A86
:100300007A0880000310A20CA10CB70A6E294030B5
:10031000BA008E20BA013A08122000380319942935
:10032000BA0AC5009B208B294430BA008E20443085
:10033000B90001303702B8000310380D233E8400A5
:100340008313840A0008BB0084030008BA0010303D
:1003500084003B08BD003A08BC00A720B90A390850
:10036000BA008E20B808031DB629B829B8039C2905
:100370000430BA00FA30C7003C20BA0BBA2947292A
:02038000630018
:04400E00E22FFF3F5F
:00000001FF
;PIC16F887
