:1000000000308A00AD2800000A108A100A11820709
:10001000443441344934203448344F344334003478
:100020000A108A100A1182074B34543443344E3478
:100030002034433441344E342034543448344F3423
:1000400000342418252808122628081683160812BA
:100050008312A4182D2888122E2888168316881239
:100060008312241935280813362808178316081315
:100070008312A4193D2888133E28881783168813F5
:100080008312003424308400831300080319552898
:100090000630F800F701F70B4B28F80B4A287B30A5
:1000A000F700F70B5128800B48280034831688117D
:1000B000831288150430F700F70B5C285F2883163D
:1000C0008811831288110330A40042200034A30E4B
:1000D0002308A40021205620A30E2308A4002120D9
:1000E00056200034A4012120C830A40042208316E9
:1000F0008810831288100330A40021205620562037
:1001000056200230A400212056202C30A300672066
:100110000C30A30067200630A30067200130A30045
:1001200067208A110A12D528A10E21080838A200DA
:10013000A40021205620A10E2108A4002120562031
:10014000003483168810831288142208A3006720C5
:1001500083168810831288100034840183131F30A3
:100160008305831603170908C039890003131F127A
:100170009F12003003178800073083128700FF307A
:1001800088008901831603139701031785018312E1
:1001900003132012200883168700FF308312A0006B
:1001A000831608118312081172280130A3006720FA
:1001B0000530A1009420A101210804200038031972
:1001C000E528A10AA200A120DC284230A100942049
:1001D000A1012108102000380319F228A10AA20069
:0601E000A120E9286300E4
:04400E00E22FFF3F5F
:00000001FF
;PIC16F887
