:1000000000308A000C2900000A108A100A118207A9
:10001000443465346D34203473346F343A340034EE
:100020000A108A100A118207523465347334653419
:1000300074342134003434181F280812202808167C
:10004000831608128312B4182728881228288816C5
:1000500083168812831234192F28081330280817A2
:10006000831608138312B419372888133828881781
:1000700083168813831200343430840083130008FD
:1000800003194F280630F800F701F70B4528F80B45
:1000900044287B30F700F70B4B28800B42280034B4
:1000A00083168811831288150430F700F70B562841
:1000B000592883168811831288110330B4003C201C
:1000C0000034B30E3308B4001B205020B30E3308A5
:1000D000B4001B2050200034B4011B20C830B400F1
:1000E0003C2083168810831288100330B4001B2034
:1000F0005020502050200230B4001B2050202C30C3
:10010000B30061200C30B30061200630B3006120E1
:100110000130B30061208A110A123B29A90E290877
:100120000838AA00B4001B205020A90E2908B400EA
:100130001B20502000348316881083128814320844
:10014000B300612083168810831288100034B10137
:100150000408B0003110831B31142A0EF038AC00B3
:10016000AC07E23EAD00323EAF002A080F39AD07C2
:10017000AD07AF07E93EAE00AE07AE07290E0F3957
:10018000AE07AF07AE0DAF0DAF09AF0D29080F39A0
:10019000AF07AC0D0730AB000A30AF07AE03031C4E
:1001A000CD28AE07AD03031CD128AD07AC03031C5B
:1001B000D528AC07AB03031CD9282B30840083134C
:1001C00007303005301384072F300402031930172D
:1001D0000008F700031DF428301BF428301A062904
:1001E000B019F4282030F728B01530123030F70756
:1001F000AA010408A9002A10831B2A147708B20058
:100200009B202908840083132A188317840A301F2F
:10021000E4288A110A126229840183131F3083059E
:10022000831603170908C039890003131F129F1290
:10023000003003178800073083128700FF308800E2
:100240008901831603139701031785018312031392
:100250002012200883168700FF308312A000E730A9
:10026000A5000330A600C830A700A8018316081116
:10027000831208116C280130B3006120A9018E207F
:10028000A90129080420003803194A29A90AB20043
:100290009B204129A201A101A401A3012408260257
:1002A000031CA529031D582923082502031CA52981
:1002B0000730A9008E20103084002208AA002108EF
:1002C000A900A7282808A900A90AA90303196C29CD
:1002D000FF30B4003C2065292708B4003C20A10A67
:1002E0000319A20A26082202031CA129031D7C2946
:1002F000210825020318A129A201A1014630A90065
:100300008E20A90129081020003803198B29A90A79
:10031000B2009B2082290830A900FA30B4003C20AA
:10032000A90B8D290130B3006120A9018E20A901FC
:100330002908042000380319A129A90AB2009B202A
:0E0340009829A30A0319A40A4E294A2963002A
:04400E00E22FFF3F5F
:00000001FF
;PIC16F887
