:1000000008308A00002800000A108A100A118207AE
:10001000533465347434753470343A3420342534B0
:100020002E343134663400340A108A100A118207E3
:100030004D346534613473347534723465343A3414
:10004000203425342E343134663400340A108A10BA
:100050000A11820753344534543455345034203413
:10006000543445344D3450343A3420340034F7019C
:10007000F8013C0803103D18F707F70CF80CBD1801
:10008000F707F70CF80C3D19F707F70CF80CBD193A
:10009000F707F70CF80C3D1AF707F70CF80CBD1A28
:1000A000F707F70CF80C3D1BF707F70CF80CBD1B16
:1000B000F707F70CF80C00348E30F7004308F8000F
:1000C0004208F900FA01F808031D70287908F800C1
:1000D000F9010830F702F808031D7028F7017828A5
:1000E0000310F81B7728F90DF80DF7037028F813A3
:1000F00000344A080319E928D2004E080319E928F8
:10010000D20703188A287F30D202031CE92803197A
:10011000E9288E288130D2070318E9285208F70011
:10012000F801F901FA014B08D600D6174C08D500A2
:100130004D08D4001830D200D301541CB728510800
:10014000FA07031CA928F90A031DA928F80A0319AC
:10015000D3175008F907031CB028F80A0319D3175E
:100160004F08CC00CC174C08F8070318D317D30D51
:10017000F80CF90CFA0CD60CD50CD40C0310D20BDD
:100180009C280130F7070318E928F81BCE28D60D64
:10019000FA0DF90DF80DF7030319E928D61FDF282A
:1001A000FA0A031DDF28F90A031DDF28F80A031DD8
:1001B000DF28F80CF90CFA0CF70A0319E9284B08A8
:1001C000D3004F08D306D31FE728F817ED28F813FC
:1001D000ED28F701F801F901FA01003480308318A5
:1001E000C706CC01CD014308CB004708CB06420827
:1001F0000319DE29CA00F70046080319E729CA02D5
:1002000003198329031C41294708D000D017480847
:10021000CF004908CE00CD010310D00CCF0CCE0C7E
:10022000CD0CCA0B0B29CB1F18294C14FB294C10E1
:100230004A104C16453084008313102A4C12CB1BF5
:100240002B294A1C3629D00CCF0CCE0CCD0CF70A2A
:100250000319F6293629D01B39290310CD0DCE0DEF
:10026000CF0DD00DF7030319F6292B294C17A3291D
:100270004C134308CB00CB1F3F29D017EF29D013D5
:10028000EF294608CA00F7004208CA024308D00016
:10029000D0174408CF004508CE00CD010310D00C84
:1002A000CF0CCE0CCD0CCA0B4D29CB1F5A29CC1428
:1002B000FB29CC104A10CC16493084008313102A35
:1002C000CC12CB1B6D294A1C7829D00CCF0CCE0C3C
:1002D000CD0CF70A0319F6297829D01B7B290310C6
:1002E000CD0DCE0DCF0DD00DF7030319F6296D29D5
:1002F000CC17A329CC134708CB00CB1F8129D017DB
:10030000EF29D013EF294708D000D0174808CF00B5
:100310004908CE00CB1F9029D0134C15FB294C1156
:10032000CD014A10453084008313102ACB1BB92914
:100330004308CB004A1CA329D00CCF0CCE0CCD0C0B
:10034000F70A0319F629CD1FB429CE0A031DB429D3
:10035000CF0A031DB429D00A031DB429D00CCF0C39
:10036000CE0CF70A0319F6294C1B3829CC1B7A2925
:10037000D8298030D006D01FC129FB294708CB00DF
:10038000CE294308CB00D008031DCE29CF08031D7A
:10039000CE29CE08031DCE29F701EF29D01BD8297D
:1003A0000310CD0DCE0DCF0DD00DF70BCE29F629B4
:1003B000CB1FDC29D017EF29D013EF294608F7000F
:1003C0004708D0004808CF004908CE00EF2942086E
:1003D000F7004308D0004408CF004508CE0050087D
:1003E000F8004F08F9004E08FA002E2AF701F8012C
:1003F000F901FA012E2ACD01CE09CF09D009CD0984
:10040000CD0A031D092ACE0A031D092ACF0A0319A2
:10041000D00A4C181729CC1859294C198F29BE29F4
:100420000008CE07031C1A2ACF0A031D1A2AD00A75
:1004300003194A1484030008CF07031C222AD00A98
:1004400003194A1484030008801F803AD007031858
:100450004A144C1A1E29CC1A6029962900344C18CB
:10046000332A0812342A0816831608128312CC186D
:100470003B2A88123C2A88168316881283124C194C
:10048000432A0813442A0817831608138312CC1929
:100490004B2A88134C2A881783168813831200343A
:1004A0004C308400831300080319632A0630F800D7
:1004B000F701F70B592AF80B582A7B30F700F70B96
:1004C0005F2A800B562A0034831688118312881500
:1004D0000430F700F70B6A2A6D2A831688118312FD
:1004E00088110330CC0050220034CB0E4B08CC00D6
:1004F0002F226422CB0E4B08CC002F226422003422
:10050000CC012F22C830CC005022831688108312D1
:1005100088100330CC002F2264226422642202302F
:10052000CC002F2264222C30CB0075220C30CB0063
:1005300075220630CB0075220130CB0075228A155A
:100540000A129428BC0E3C080838BD00CC002F22AB
:100550006422BC0E3C08CC002F2264220034831697
:100560008810831288144A08CB00752283168810DD
:100570008312881000344A08B63CCA00FA014B08BE
:10058000CE00CB170310CB0CCC0CCD0CFA0CF90C15
:10059000F80CF70CCA0BC22ACE1FD92AF709F809A2
:1005A000F909FA09F70A0319F80A0319F90A0319EC
:1005B000FA0A8A110A12462BF701F801F901FA0129
:1005C000D201D301D401D501510850044F044E0487
:1005D00003191A2B2030D6000310CA0DCB0DCC0DF9
:1005E000CD0DD20DD30DD40DD50D51085502031DDF
:1005F000032B50085402031D032B4F085302031D05
:10060000032B4E085202031C142B4E08D2024F0833
:10061000031C4F0FD3025008031C500FD402510883
:10062000031C510FD5020314F70DF80DF90DFA0D47
:10063000D60BEC2A52308400831300340408C20025
:100640004108C40003193D2B4008CD003F08CC00F1
:100650003E08CB003D08CA00D101D0012030CF00B8
:100660008230CE0079207A08C0007908BF0078086F
:10067000BE007708BD00C40B242B4008CD003F0806
:10068000CC003E08CB003D08CA00BB2A7A08C00057
:100690007908BF007808BE007708BD00C01F5D2B39
:1006A000C203C216BD09BE09BF09C009BD0A0319AC
:1006B000BE0A0319BF0A0319C00A3B30C9009A30A9
:1006C000C800CA30C700C6010A30C4004108031977
:1006D000C20A4008CD003F08CC003E08CB003D08D0
:1006E000CA004908D1004808D0004708CF00460892
:1006F000CE00DC220008BD00840A0008BE00840A87
:100700000008BF00840A0008C000FD308407F70815
:10071000031D9D2B410A440203199D2B4208031916
:100720009F2B0F3944020319972B0318CF2BC21BA1
:10073000CF2B421B9F2B2030CB2B2030C205C21E5B
:10074000AD2BC2124108031DC2037708C2002D3031
:10075000CA00AF224208F700C20141084402031D4B
:10076000BB2B7708C2002E30CA00AF224208F70028
:100770002030C20500303030C21ECB2BC2124108DF
:10078000031DC2037708C2002D30CA00AF22420801
:10079000F700C2013030F7077708CA00AF224908D6
:1007A000CD004808CC004708CB004608CA00D1015C
:1007B000D001CF010A30CE00DC227A08C9007908C6
:1007C000C8007808C7007708C600C40B692B00343E
:1007D0000330C602031CF62B463084008313000846
:1007E0000319F62BF42BF42B800BF32B0034A01001
:1007F000200883168700831287100230C500F93065
:10080000C600E823C50BFF2BA01420088316870021
:1008100002308312C500F930C600E823C50B0B2C4B
:10082000A01420088316870083120034C6014608EE
:10083000073C031C412CA01020088316870083125C
:1008400087100330F700F70B232C0310C50C031897
:100850002B2C87102C2C8714A010200883168700BF
:100860006330F700F70B322C352C8312A0142008CC
:10087000831687000330F700F70B3C2C8312C60A5F
:10088000172C0034C5014508073C031C6C2CA01034
:10089000200883168700831287100330F700F70BB8
:1008A0004F2CA0142008831687000D30F700F70B9B
:1008B000572C8312A01420088316870083128718F0
:1008C000632C0310642C0314C60CC730F700F70B1D
:1008D000672C6A2CC50A432C4608F80000348E3079
:1008E000F7004608F8004508F900FA01C61F7D2CFC
:1008F000F809F909F90A0319F80AF808031D8A2CFE
:100900007908F800F9010830F702F808031D8A2C6D
:10091000F701932C0310F81B912CF90DF80DF70338
:100920008A2CC61FF8138A110A12872D4908031949
:100930005B2DD5004D0803195B2DD502031CA52C9A
:100940007F30D50703185B2DAB2C8130D502031CFB
:100950005B2D03195B2D5508F700F801F901FA0129
:10096000D4014A08D300D3174B08D2004C08D10059
:100970001930D5005008D1020318CE2C0130D20214
:100980000318CE2CD3020318CE2CD4020318CE2C7D
:10099000D40AD30AD20A5008D107002D4F08D20238
:1009A0000318E92C0130D3020318E92CD4020318F0
:1009B000E92CD40AD30A4F08D2075008D107031CE8
:1009C000002DD20A031D002DD30A031D002DD40AC9
:1009D000002D4E088038D3020318FF2C0130D402BA
:1009E0000318FF2CD40A4E088038D3074F08D207CB
:1009F000031CDD2CD30A031DDD2CD40ADD2C7A1454
:100A0000D50B032D0E2D0310D10DD20DD30DD40D0A
:100A10000310FA0DF90DF80DD60DBA2C561C162D33
:100A20000310F80CF90CFA0CD60C192DF703031966
:100A30005B2DD61B422D0310D10DD20DD30DD40D3D
:100A40005008D10203182E2D0130D20203182E2D8A
:100A5000D30203182E2DD402031C512D4F08D202AD
:100A60000318392D0130D3020318392DD402031C89
:100A7000512D4E088038D3020318422D0130D40284
:100A8000031C512DFA0A031D512DF90A031D512D86
:100A9000F80A031D512DF70A03195B2DF80CF90C08
:100AA000FA0C4A08D5004E08D506D51F592DF8175F
:100AB0005F2DF8135F2DF701F801F901FA018A1192
:100AC0000A129C2DBC01F723CC30C50016244430FB
:100AD000C5001624BC08031D712D42247808BC00F3
:100AE0006A2DF723CC30C5001624BE30C50016246D
:100AF00042247808BD0042247808BE003E08C000A9
:100B00003D08BF004008C6003F08C5006F2C7708AD
:100B1000C5007808C6007908C7007A08C800CC006C
:100B20007908CB007808CA007708C900D001CF0146
:100B3000CE018330CD00962C7A08C4007908C3001A
:100B40007808C2007708C100C830CC0050224108A4
:100B5000F7004208F8004308F9004408FA0000349E
:100B60004508CC004908CC06CC1FBB2D031103104F
:100B7000C51B0314EE2D4508CC004808CD004408E1
:100B8000CD020319C92DCC1FEE2D0308013A8300B5
:100B9000EE2D4908CD004508CD020319D52DCC1FF7
:100BA000EE2D0308013A8300EE2D4A08CD004608D9
:100BB000CD020319E12DCC1FEE2D0308013A83006D
:100BC000EE2D4B08CD004708CD020319ED2DCC1FAB
:100BD000EE2D0308013A8300EE2D03108A110A124C
:100BE000022E4308C7004208C6004108C50040085D
:100BF000C4003F08CB003E08CA003D08C9003C08BD
:100C0000C800B02D0318062E031D142E2013200833
:100C100083168700831207170430C400FA30CC0013
:100C20005022C40B0E2E212E20132008831687007D
:100C3000831207130430C400FA30CC005022C40BD6
:100C40001C2E8A150A1215298316061483120618FB
:100C50002D2E0130F800952E952E831686148312C2
:100C60008618362E0230F800952E952E831606151E
:100C7000831206193F2E0330F800952E952E831609
:100C800006168312061A482E0430F800952E952E6B
:100C9000831686168312861A512E0530F800952E7B
:100CA000952E831606178312061B5A2E0630F8005F
:100CB000952E952E2014200883168700831207187E
:100CC000652E0730F800952E952E83168914831211
:100CD00089186E2E0830F800952E952E831609156A
:100CE00083120919772E0930F800952E952E831658
:100CF000081483120818802E0030F800952E952EC7
:100D0000831686178312861B892E6430F800952E71
:100D1000952E8316091483120918922E3230F8008A
:100D2000952E952EFF30F800952E8A150A126D2902
:100D30004308F80142020318A02E4208F700AC2E27
:100D4000F7010830C400C20DF70D430877020318FD
:100D5000F700F80DC40BA32E003420303D1E3030B8
:100D6000BE003C08F700BC1FBC2EF709F70A770845
:100D7000BC002D30BE00BD173C08C2006430C3006B
:100D800098267708BC0030307807BF003C08C200C6
:100D90000A30C300982630307707C100303078071A
:100DA000C0003E08F700BD1DD72EBD1F3D113D1AE6
:100DB000E42EBD1FFF2E3D19FF2E7708BF00BD1882
:100DC000FF2E7708C000FF2E30303F02031DFF2E9C
:100DD0007708BF002030BE00BD1DF22E3D11BD14AE
:100DE000BD1FBD1030304002031DFF2E7708C0002C
:100DF0002030BF00BD1DF22EBD10BD1F3D103D1D9A
:100E0000042F3E08CA00AF22BD1C092F3F08CA00AC
:100E1000AF223D1C0E2F4008CA00AF224108CA0075
:080E2000AF228A150A12832992
:10100000840183131F308305831603170908C03931
:10101000890003131F129F12003003178800073046
:1010200083128700FF30880089018316031397011C
:1010300003178501831203132012200883168700EB
:10104000FF308312A000FD3003178D0083168C1330
:101050000C1483120C080313A900FE3003178D0033
:1010600083168C130C1483120C080313AA00FF3090
:1010700003178D0083168C130C1483120C080313B2
:10108000AB002908BC000A30BD008A1137208A1540
:101090002A087807BD00C3012B08C2008A115C2012
:1010A0008A157A08CD007908CC007808CB0077083B
:1010B000CA00CD30D100CC30D0004C30CF007B30D6
:1010C000CE008A1179208A157708BE007808BF0003
:1010D0007908C0007A08C100C3013D08C2008A1126
:1010E0005C208A1583107A08C5007908C400780846
:1010F000C3007708C2004108C9004008C8003F0883
:10110000C7003E08C6008A11EE208A157A08A8009A
:101110007908A7007808A6007708A50083160811AB
:10112000831208118A11802A8A15FF3083168600DF
:10113000890001308312CB008A1175228A15BC0107
:101140008A11A2228A15BC013C088A1104208A1542
:10115000BC0AF700CA008A11AF228A1507303C0288
:10116000031DA428893084002808C0002708BF0078
:101170002608BE002508BD000130C1008A111E23CB
:101180008A15DF30CA008A11AF228A154330CA009F
:101190008A11AF228A158A1162258A157A08A4005D
:1011A0007908A3007808A2007708A1004030BC00AD
:1011B0008A11A2228A15BC013C088A1114208A15C2
:1011C000BC0AF700CA008A11AF228A1509303C0216
:1011D000031DDC28893084002408C0002308BF00D8
:1011E0002208BE002108BD000130C1008A111E2363
:1011F0008A15DF30CA008A11AF228A154330CA002F
:101200008A11AF228A152408BF002308BE002208D5
:10121000BD002108BC002808C3002708C20026081A
:10122000C1002508C0008A11F12D8A158316091402
:101230008312BA010918BA0ABA08031D3A2B013001
:10124000CB008A1175228A15BC018A11A2228A1547
:10125000BC013C088A1126208A15BC0AF700CA0086
:101260008A11AF228A150C303C02031D2929043053
:10127000BC00FA30CC008A1150228A15BC0B3929E7
:10128000B6014030B700831609148312B90109185A
:10129000B90A831686178312B801861BB80A380B61
:1012A00052295429003055290130BC00390B5929E5
:1012B0005B2900305C2901303C0403193A2B83166A
:1012C00009148312B9010918B90A83168617831203
:1012D000B801861BB80A8A11242E8A157808BB002B
:1012E0003B08093C031C96293608023C031C96293E
:1012F0003708BC008A11A2228A153B08BC001F30A7
:10130000BD008A11AD2E8A150430BC00FA30CC0025
:101310008A1150228A15BC0B86292C30360784008E
:1013200083133B088000B60AB70A392B3B08643C9C
:10133000031DCB2A3608023C0318CB2AFD300317C5
:101340008D0003132C0803178C0083168C130C15C7
:10135000831203130B08F7008B1383160317553002
:101360008D00AA308D008C148C18B4290C117708CC
:10137000831203138B04FE3003178D0003132D0813
:1013800003178C0083168C130C15831203130B08A0
:10139000F7008B138316031755308D00AA308D008C
:1013A0008C148C18D1290C117708831203138B0429
:1013B000FF3003178D0003132E0803178C008316CC
:1013C0008C130C15831203130B08F7008B13831671
:1013D000031755308D00AA308D008C148C18EE291F
:1013E0000C117708831203138B04FD3003178D0053
:1013F00083168C130C1483120C080313A900FE30FF
:1014000003178D0083168C130C1483120C0803131E
:10141000AA00FF3003178D0083168C130C1483125F
:101420000C080313AB002908BC000A30BD008A1168
:1014300037208A152A087807BD00C3012B08C2008F
:101440008A115C208A157A08CD007908CC007808CA
:10145000CB007708CA00CD30D100CC30D0004C3062
:10146000CF007B30CE008A1179208A157708BE0024
:101470007808BF007908C0007A08C100C3013D08A0
:10148000C2008A115C208A1583107A08C500790889
:10149000C4007808C3007708C2004108C9004008AA
:1014A000C8003F08C7003E08C6008A11EE208A1512
:1014B0007A08A8007908A7007808A6007708A50090
:1014C0000130CB008A1175228A15BC018A11A22233
:1014D0008A15BC013C088A1104208A15BC0AF70051
:1014E000CA008A11AF228A1507303C02031D6A2AFE
:1014F000893084002808C0002708BF002608BE00E5
:101500002508BD000130C1008A111E238A15DF3075
:10151000CA008A11AF228A154330CA008A11AF224D
:101520008A158A1162258A157A08A4007908A30011
:101530007808A2007708A1004030BC008A11A222DE
:101540008A15BC013C088A1114208A15BC0AF700D0
:10155000CA008A11AF228A1509303C02031DA22A53
:10156000893084002408C0002308BF002208BE0080
:101570002108BD000130C1008A111E238A15DF3009
:10158000CA008A11AF228A154330CA008A11AF22DD
:101590008A153A2B392B3B08323C031D392B01307D
:1015A000CB008A1175228A15BC018A11A2228A15E4
:1015B000BC013C088A1104208A15BC0AF700CA0045
:1015C0008A11AF228A1507303C02031DD92A8930BF
:1015D00084002808C0002708BF002608BE00250890
:1015E000BD000130C1008A111E238A15DF30CA00F8
:1015F0008A11AF228A154330CA008A11AF228A1598
:101600008A1162258A157A08A4007908A30078084F
:10161000A2007708A1004030BC008A11A2228A15DE
:10162000BC013C088A1114208A15BC0AF700CA00C4
:101630008A11AF228A1509303C02031D112B893013
:1016400084002408C0002308BF002208BE0021082F
:10165000BD000130C1008A111E238A15DF30CA0087
:101660008A11AF228A154330CA008A11AF228A1527
:081670003A2B4F29CB2863003F
:04400E00F22CFF3F52
:00000001FF
;PIC16F887
