:1000000000308A003E290000FF00030E8301A1009A
:100010000A08A0008A010408A2007708A300780853
:10002000A4007908A5007A08A6007B08A70083131E
:1000300083120B1E1D288B183028220884002308E9
:10004000F7002408F8002508F9002608FA00270818
:10005000FB0020088A00210E8300FF0E7F0E09009E
:100060008A110A123F280A108A100A1182074334A3
:100070006F3475346E3474343D34203400348B1056
:100080000B138B138B1B4128A90A0319AA0AC03032
:100090008B048B108A110A121D2836185128081259
:1000A00052280816831608128312B6185928881287
:1000B0005A28881683168812831236196128081365
:1000C00062280817831608138312B6196928881343
:1000D0006A28881783168813831200343630840008
:1000E00083130008031981280630F800F701F70B85
:1000F0007728F80B76287B30F700F70B7D28800BEC
:100100007428003483168811831288150430F70090
:10011000F70B88288B2883168811831288110330E7
:10012000B6006E200034B50E3508B6004D20822092
:10013000B50E3508B6004D2082200034B6014D20A2
:10014000C830B6006E2083168810831288100330E2
:10015000B6004D208220822082200230B6004D2041
:1001600082202C30B50093200C30B500932006304F
:10017000B50093200130B50093208A110A126D2931
:10018000AB0E2B080838AC00B6004D208220AB0E19
:100190002B08B6004D20822000348316881083126D
:1001A00088143408B50093208316881083128810B1
:1001B0000034B3010408B2003310831B33142C0E37
:1001C000F038AE00AE07E23EAF00323EB1002C0880
:1001D0000F39AF07AF07B107E93EB000B007B0076E
:1001E0002B0E0F39B007B107B00DB10DB109B10D2C
:1001F0002B080F39B107AE0D0730AD000A30B1073B
:10020000B003031CFF28B007AF03031C0329AF078B
:10021000AE03031C0729AE07AD03031C0B292D30C9
:10022000840083130730320532138407313004020F
:10023000031932170008F700031D2629321B26294F
:10024000321A3829B219262920302929B21532123A
:100250003030F707AC010408AB002C10831B2C14C2
:100260007708B400CD202B08840083132C18831743
:10027000840A321F16298A110A128C2984018313D9
:100280001F308305831603170908C039890003133B
:100290001F129F1200300317880007308312870057
:1002A000FF30880089018316031397010317850126
:1002B000831203132812280883168700FF30831245
:1002C000A800A901AA01FF3083168600013095001D
:1002D00081130811831208119E280130B500932064
:1002E000AB01C020AB012B083320003803197C2957
:1002F000AB0AB400CD2073290B1683160113C0304E
:1003000083128B040630AB00C020103084002A0812
:0C031000AC002908AB00D928822963004A
:04400E00F22CFF3F52
:00000001FF
;PIC16F887
