:1000000000308A005C280000FF00030E8301A1007D
:100010000A08A0008A010408A2007708A300780853
:10002000A4007908A5007A08A6007B08A70083131E
:1000300083120B1E1D288B183028220884002308E9
:10004000F7002408F8002508F9002608FA00270818
:10005000FB0020088A00210E8300FF0E7F0E09009E
:100060008A110A1249282A308400831300080319D0
:1000700046280630F800F701F70B3C28F80B3B2820
:100080007B30F700F70B4228800B39288A110A12BF
:1000900053288B100B138B138B1B4B280230A9009A
:1000A000FA30AA003328A90B50288909C0308B04E4
:1000B0008B108A110A121D28840183131F308305B7
:1000C000831603170908C039890003131F129F12F2
:1000D000003003178800073083128700FF30880044
:1000E00089018316031397010317850183120313F4
:1000F0002812280883168700FF308312A800FF30DB
:1001000083168600890101309500811383128901CD
:100110000B1683160113C03083128B048E286300E4
:04400E00F22CFF3F52
:00000001FF
;PIC16F887
