:1000000000308A0038280000FF00030E8301A100A1
:100010000A08A0008A010408A2007708A300780853
:10002000A4007908A5007A08A6007B08A70083131E
:1000300083120B1E1D288B183028220884002308E9
:10004000F7002408F8002508F9002608FA00270818
:10005000FB0020088A00210E8300FF0E7F0E09009E
:100060008A110A12332889098B108A110A121D2855
:10007000840183131F308305831603170908C039D1
:10008000890003131F129F120030031788000730E6
:1000900083128700FF3088008901831603139701BC
:1000A000031785018312031328122808831687007B
:1000B000FF308312A800FF308316860089010130CB
:1000C00095008113831289010B1683160113C0302A
:0800D00083128B046A2863000F
:04400E00F22CFF3F52
:00000001FF
;PIC16F887
