:1000000000308A00672E00003618082808120928D8
:100010000816831608128312B618102888121128A1
:10002000881683168812831236191828081319287F
:100030000817831608138312B6192028881321285D
:100040008817831688138312003436308400831394
:100050000008031938280630F800F701F70B2E289E
:10006000F80B2D287B30F700F70B3428800B2B285A
:10007000003483168811831288150430F700F70BBB
:100080003F28422883168811831288110330B60056
:1000900025200034B50E3508B60004203920B50EF1
:1000A0003508B600042039200034B6010420C830D9
:1000B000B600252083168810831288100330B600FE
:1000C00004203920392039200230B600042039209C
:1000D0002C30B5004A200C30B5004A200630B5005F
:1000E0004A200130B5004A208A110A129E2E08309B
:1000F000F8000430F700F70B7B288711A2112208C3
:10010000831687000330F700F70B84288312AB0DAA
:100110000712031C912822162208831687009528AF
:100120008312221222088316870000008312A21570
:100130002208831687008312871D9C28F80B7928D4
:100140000430F700F70BA2288711A21122088316AA
:1001500087000000831222162208831687000330CE
:10016000F700F70BB1280330F700F70BB52883121F
:10017000A2152208831687008312871DBD28F80167
:100180000330F700F70BC228071A78148711A21161
:100190002208831687008312071222122208831670
:1001A0008700831200342216220883168700043049
:1001B000F700F70BD9288312A215220883168700AF
:1001C0000330F700F70BE2288312071222122208ED
:1001D000831687000430F700F70BEC288312871191
:1001E000A211220883168700D0308312AB0077203B
:1001F0002308AB0077202408AB00772022122208C6
:100200008316870000008312A21522088316870038
:100210008312871D09290430F700F70B0D291029D7
:10022000000022162208831687000430F700F70B1F
:100230001729831200340E30A300A401D3200F30FD
:10024000A3000830A400D3208A110A129F2EA30E07
:1002500023080838A400B60004203920A30E230880
:10026000B600042039208A110A12A42E0830AC00EE
:100270007708AD0022162208831687000330F700A6
:10028000F70B40298312A2152208831687008312D8
:10029000871D4829071A0314071E0310F80D0430A0
:1002A000F700F70B5129A211220883168700831249
:1002B0008711AC0B3A2922162208831687000330D7
:1002C000F700F70B6129831207122D0803196D2916
:1002D000221222088316870083120000A21522082A
:1002E000831687008312871D73290430F700F70BEC
:1002F00077298711A2112208831687000330F7009F
:10030000F70B802983120712221222088316870016
:1003100083128A110A12DE29AA01221622088316E4
:1003200087000430F700F70B93298312A2152208E7
:10033000831687000330F700F70B9C2983120712FE
:1003400022122208831687000430F700F70BA62933
:1003500083128711A211220883168700D0308312DE
:10036000AB0077202908AB007720221622088316DD
:1003700087000430F700F70BBB298312A21522086F
:10038000831687000330F700F70BC4298312871DFB
:10039000C729071222122208831687000430F700AB
:1003A000F70BD02983128711A21122088316870028
:1003B000D1308312AB007720F70136297808AA00E4
:1003C000221222088316870000008312A215220839
:1003D000831687008312871DEB290430F700F70B83
:1003E000EF29F22900002216220883168700043024
:1003F000F700F70BF92983122A08F80000348E3031
:10040000F7002A08F8002908F900FA01F808031D86
:10041000132A7908F800F9010830F702F808031DDB
:10042000132AF7011B2A0310F81B1A2AF90DF80DDD
:10043000F703132AF8138A110A12172C3408031928
:100440008E2ABC00380803198E2ABC0703182F2AED
:100450007F30BC02031C8E2A03198E2A332A813076
:10046000BC0703188E2A3C08F700F801F901FA01CD
:100470003508C000C0173608BF003708BE00183066
:10048000BC00BD013E1C5C2A3B08FA07031C4E2A37
:10049000F90A031D4E2AF80A0319BD173A08F9078D
:1004A000031C552AF80A0319BD173908B600B617F8
:1004B0003608F8070318BD17BD0DF80CF90CFA0C37
:1004C000C00CBF0CBE0C0310BC0B412A0130F70757
:1004D00003188E2AF81B732AC00DFA0DF90DF80DBA
:1004E000F70303198E2AC01F842AFA0A031D842ADF
:1004F000F90A031D842AF80A031D842AF80CF90C52
:10050000FA0CF70A03198E2A3508BD003908BD0612
:10051000BD1F8C2AF817922AF813922AF701F801C6
:10052000F901FA0100348E30F7002A08F800290892
:10053000F900FA01AA1FA12AF809F909F90A031911
:10054000F80AF808031DAE2A7908F800F901083006
:10055000F702F808031DAE2AF701B72A0310F81BAB
:10056000B52AF90DF80DF703AE2AAA1FF8138A1160
:100570000A123B2C80308318AE06B301B4012A085E
:10058000B2002E08B20629080319AA2BB100F70001
:100590002D080319B32BB10203194F2B031C0D2B8C
:1005A0002E08B700B7172F08B6003008B500B40101
:1005B0000310B70CB60CB50CB40CB10BD72AB21F94
:1005C000E42A3314C72B3310311033162C30840037
:1005D0008313DC2B3312B21BF72A311C022BB70C0E
:1005E000B60CB50CB40CF70A0319C22B022BB71BBF
:1005F000052B0310B40DB50DB60DB70DF703031998
:10060000C22BF72A33176F2B33132A08B200B21FFD
:100610000B2BB717BB2BB713BB2B2D08B100F70063
:100620002908B1022A08B700B7172B08B6002C0812
:10063000B500B4010310B70CB60CB50CB40CB10B7B
:10064000192BB21F262BB314C72BB3103110B316BE
:10065000303084008313DC2BB312B21B392B311CD6
:10066000442BB70CB60CB50CB40CF70A0319C22B0B
:10067000442BB71B472B0310B40DB50DB60DB70DAA
:10068000F7030319C22B392BB3176F2BB3132E08A3
:10069000B200B21F4D2BB717BB2BB713BB2B2E08C5
:1006A000B700B7172F08B6003008B500B21F5C2B93
:1006B000B7133315C72B3311B40131102C3084001C
:1006C0008313DC2BB21B852B2A08B200311C6F2B45
:1006D000B70CB60CB50CB40CF70A0319C22BB41F37
:1006E000802BB50A031D802BB60A031D802BB70A89
:1006F000031D802BB70CB60CB50CF70A0319C22BDF
:10070000331B042BB31B462BA42B8030B706B71F1B
:100710008D2BC72B2E08B2009A2B2A08B200B708DF
:10072000031D9A2BB608031D9A2BB508031D9A2B9F
:10073000F701BB2BB71BA42B0310B40DB50DB60DE1
:10074000B70DF70B9A2BC22BB21FA82BB717BB2BD9
:10075000B713BB2B2D08F7002E08B7002F08B600E3
:100760003008B500BB2B2908F7002A08B7002B0872
:10077000B6002C08B5003708F8003608F90035082F
:10078000FA00FA2BF701F801F901FA01FA2BB4018A
:10079000B509B609B709B409B40A031DD52BB50AC2
:1007A000031DD52BB60A0319B70A3318E32AB31869
:1007B000252B33195B2B8A2B0008B507031CE62B6E
:1007C000B60A031DE62BB70A031931148403000887
:1007D000B607031CEE2BB70A031931148403000873
:1007E000801F803AB70703183114331AEA2AB31A64
:1007F0002C2B622B8A110A124D2CA301A401A501F6
:10080000A601A701A8011230A9008C217808A70031
:100810001130A9008C217808A800A70EA70CA70CFE
:100820000330A705A705AA012708A900FF297A0810
:10083000A6007908A5007808A4007708A300260878
:10084000B7002508B6002408B5002308B400BB0192
:10085000BA01B9017D30B8001E227A08A6007908D5
:10086000A5007808A4007708A300AA012808A90019
:10087000A91BAA03932A83102608AC002508AB0005
:100880002408AA002308A9007A08B0007908AF005C
:100890007808AE007708AD00BA2A7A08A600790871
:1008A000A5007808A4007708A3002308F70024080F
:1008B000F8002508F9002608FA0000343408B63C90
:1008C000B400FA013508B800B5170310B50CB60C22
:1008D000B70CFA0CF90CF80CF70CB40B652CB81F1C
:1008E0007C2CF709F809F909FA09F70A0319F80A3B
:1008F0000319F90A0319FA0A0034F701F801F9019A
:10090000FA01BC01BD01BE01BF013B083A04390434
:1009100038040319BB2C2030C0000310B40DB50DF2
:10092000B60DB70DBC0DBD0DBE0DBF0D3B083F0292
:10093000031DA42C3A083E02031DA42C39083D02D5
:10094000031DA42C38083C02031CB52C3808BC023B
:100950003908031C390FBD023A08031C3A0FBE02C6
:100960003B08031C3B0FBF020314F70DF80DF90DF4
:10097000FA0DC00B8D2C3C30840083130034831699
:100980008810831288143408B5004A208316881012
:100990008312881000340408AC002B08AE00031941
:1009A000EA2C2A08B7002908B6002808B50027084D
:1009B000B400BB01BA012030B9008230B8001E2259
:1009C0007A08AA007908A9007808A8007708A70083
:1009D000AE0BD12C2A08B7002908B6002808B500AC
:1009E0002708B4005E247A08AA007908A9007808CC
:1009F000A8007708A700AA1F0A2DAC03AC16A70908
:100A0000A809A909AA09A70A0319A80A0319A90A82
:100A10000319AA0A3B30B3009A30B200CA30B100C1
:100A2000B0010A30AE002B080319AC0A2A08B7003F
:100A30002908B6002808B5002708B4003308BB0011
:100A40003208BA003108B9003008B8007D24000827
:100A5000A700840A0008A800840A0008A900840AE4
:100A60000008AA00FD308407F708031D4A2D2B0A51
:100A70002E0203194A2D2C0803194C2D0F392E0272
:100A80000319442D03187C2DAC1B7C2D2C1B4C2DE5
:100A90002030782D2030AC05AC1E5A2DAC122B081E
:100AA000031DAC037708AC002D30B400BF242C0824
:100AB000F700AC012B082E02031D682D7708AC004F
:100AC0002E30B400BF242C08F7002030AC050030D5
:100AD0003030AC1E782DAC122B08031DAC03770808
:100AE000AC002D30B400BF242C08F700AC0130302E
:100AF000F7077708B400BF243308B7003208B60000
:100B00003108B5003008B400BB01BA01B9010A30A0
:100B1000B8007D247A08B3007908B2007808B100E3
:100B20007708B000AE0B162D8A110A12BA2E0408EF
:100B3000AC002B08AE000319B62D2A08B70029080F
:100B4000B6002808B5002708B400BB01BA01203060
:100B5000B9008230B8001E227A08AA007908A900DC
:100B60007808A8007708A700AE0B9D2D2A08B700CB
:100B70002908B6002808B5002708B4005E247A08C2
:100B8000AA007908A9007808A8007708A700AA1F7A
:100B9000D62DAC03AC16A709A809A909AA09A70A6A
:100BA0000319A80A0319A90A0319AA0A3B30B300BA
:100BB0009A30B200CA30B100B0010A30AE002B0842
:100BC0000319AC0A2A08B7002908B6002808B5009E
:100BD0002708B4003308BB003208BA003108B90056
:100BE0003008B8007D240008A700840A0008A80087
:100BF000840A0008A900840A0008AA00FD308407BE
:100C0000F708031D162E2B0A2E020319162E2C0888
:100C10000319182E0F392E020319102E03184C2E0B
:100C2000AC1B4C2E2C1B182E2030472E2030AC0530
:100C3000AC1E272EAC122B08031DAC037708AC00AA
:100C40002D300C1E212E99002C08F700AC012B082A
:100C50002E02031D362E7708AC002E300C1E2E2ED1
:100C600099002C08F7002030AC0500303030AC1E65
:100C7000472EAC122B08031DAC037708AC002D30B7
:100C80000C1E402E99002C08F700AC013030F707FD
:100C900077080C1E492E99003308B7003208B600B9
:100CA0003108B5003008B400BB01BA01B9010A30FF
:100CB000B8007D247A08B3007908B2007808B10042
:100CC0007708B000AE0BE22D8A110A12D02E8401F3
:100CD00083131F308305831603178715083003130A
:100CE000990002309A00A630980090308312980044
:100CF000831603170908C039890003131F129F12B6
:100D0000003003178800073083128700FF30880007
:100D100089018316031397010317850183120313B7
:100D200022122208831687008312A001A101FF303E
:100D3000A200831608118312081155281B290130BF
:100D4000B5004A20A3012729FD237708A3007808CE
:100D5000A4007908A5007A08A600893084007A08E2
:100D6000AA007908A9007808A8007708A700013030
:100D7000AB00CB2CFD237708A3007808A4007908EA
:100D8000A5007A08A600893084007A08AA007908AC
:100D9000A9007808A8007708A7000130AB00972DBC
:100DA00043300C1ED12E99000A300C1ED52E99000E
:100DB000DF30B400BF244330B400BF24A22E630050
:04400E00E22FFF3F5F
:00000001FF
;PIC16F887
