:1000000000308A0047280000FF00030E8301A10092
:100010000A08A0008A010408A2007708A300780853
:10002000A4007908A5007A08A6007B08A70083131E
:1000300083128C308400801E1F288C1A32282208DC
:1000400084002308F7002408F8002508F900260892
:10005000FA002708FB0020088A00210E8300FF0E0B
:100060007F0E09008A110A1235288C1E35281A08BD
:10007000A8002808623C031D3F28FF30890028089B
:10008000743C031989018C128A110A121F288401F9
:1000900083131F3083058316031787150830031356
:1000A000990002309A00A630980090308312980090
:1000B000831603170908C039890003131F129F1202
:1000C000003003178800073083128700FF30880054
:1000D0008901831603139701031785018312031304
:1000E0002912290883168700FF308312A90083167E
:0E00F00089018C16C03083128B047D286300BA
:04400E00E22FFF3F5F
:00000001FF
;PIC16F887
