:1000000000308A001A280000223084008313000880
:10001000031917280630F800F701F70B0D28F80B25
:100020000C287B30F700F70B1328800B0A288A1165
:100030000A124728840183131F3083058316031790
:100040000908C039890003131F129F1200300317DB
:100050008800073083128700FF30880089018316EB
:10006000031397010317850183120313201220083D
:1000700083168700FF308312A00083168901831244
:10008000890189090430A100FA30A2000428A10BDB
:0600900044284128630032
:04400E00E22CFF3F62
:00000001FF
;PIC16F887
