:1000000000308A0018280000223084008313000882
:10001000031917280630F800F701F70B0D28F80B25
:100020000C287B30F700F70B1328800B0A280034CC
:10003000840183131F308305831603170908C03911
:10004000890003131F129F12003003178800073026
:1000500083128700FF3088008901831603139701FC
:1000600003178501831203132012200883168700CB
:10007000FF308312A00083168901063083128900A5
:100080000230A100FA30A2000420A10B4228023065
:100090008900A100FA30A2000420A10B4A280430F4
:1000A00089000230A100FA30A2000420A10B5328DD
:1000B00089010230A100FA30A2000420A10B5B28C4
:0600C00083163D286300D9
:04400E00E22CFF3F62
:00000001FF
;PIC16F887
