:1000000000308A009C290000FF00030E8301A1003C
:100010000A08A0008A010408A2007708A300780853
:10002000A4007908A5007A08A6007B08A70083131E
:1000300083128B1E1D280B193028220884002308E8
:10004000F7002408F8002508F9002608FA00270818
:10005000FB0020088A00210E8300FF0E7F0E09009E
:100060008A110A123F280A108A100A1182074434A2
:1000700065346D34203473346F343A340034643072
:1000800081000130A9070318AA0A0319AB0A031952
:10009000AC0A2D082902031D6C282E082A02031D14
:1000A0006C282F082B02031D6C2830082C02031D1E
:1000B0006C280B110B138B138B1B5B28AC01AB0152
:1000C000AA01A9010130B1070318B20A0319B30A42
:1000D0000319B40AC0308B040B118A110A121D28AF
:1000E00047187428081275280816831608128312F8
:1000F000C7187C2888127D288816831688128312D8
:1001000047198428081385280817831608138312B3
:10011000C7198C2888138D28881783168813831293
:10012000003447308400831300080319A4280630E4
:10013000F800F701F70B9A28F80B99287B30F700A5
:10014000F70BA028800B97280034831688118312A0
:1001500088150430F700F70BAB28AE2883168811FA
:10016000831288110330C70091200034C60E460860
:10017000C7007020A520C60E4608C7007020A52025
:100180000034C7017020C830C70091208316881042
:10019000831288100330C7007020A520A520A52059
:1001A0000230C7007020A5202C30C600B6200C30CD
:1001B000C600B6200630C600B6200130C600B62004
:1001C0008A110A12D829B90E39080838BA00C700AE
:1001D0007020A520B90E3908C7007020A520003472
:1001E00083168810831288144508C600B62083162B
:1001F0008810831288100034F701F801F901FA0120
:10020000CD01CE01CF01D0014C084B044A04490472
:1002100003193A292030D1000310C50DC60DC70DB2
:10022000C80DCD0DCE0DCF0DD00D4C085002031DC5
:1002300023294B084F02031D23294A084E02031DA0
:10024000232949084D02031C34294908CD024A08D4
:10025000031C4A0FCE024B08031C4B0FCF024C0865
:10026000031C4C0FD0020314F70DF80DF90DFA0D15
:10027000D10B0C294D308400831300340408BD00D9
:100280003B30C4009A30C300CA30C200C1010A30FA
:10029000BF003C08C8003B08C7003A08C600390840
:1002A000C5004408CC004308CB004208CA004108FE
:1002B000C900FC200008B900840A0008BA00840ABA
:1002C0000008BB00840A0008BC00F708031D7B2956
:1002D0003F08013A03197B293D0803197C290F398E
:1002E0003F020319752903188129BD1B81293D1B74
:1002F0007C2920307D29BD013030F7077708C50003
:10030000F0204408C8004308C7004208C60041085E
:10031000C500CC01CB01CA010A30C900FC207A0813
:10032000C4007908C3007808C2007708C100BF0B79
:1003300049298A110A121D2A840183131F3083055B
:10034000831603170908C039890003131F129F126F
:10035000003003178800073083128700FF308800C1
:100360008901831603139701031785018312031371
:100370002812280883168700FF308312A800A901DD
:10038000AA01AB01AC01F430AD000130AE00AF0109
:10039000B001B101B201B301B4010F30B500273093
:1003A000B600B701B8018316081183120811C128DD
:1003B0000130C600B6208B1683160108C0390438F8
:1003C0008100C03083128B0464308100380834020D
:1003D000031C032A031DFC2937083302031C032ACC
:1003E000031DFC2936083202031C032A031DFC29C5
:1003F000310835020318032AB401B301B201B10177
:100400000130C600B620B901E320B9013908332014
:10041000003803190F2AB90AC500F020062A073050
:10042000B900E320413084003408BC003308BB002D
:0E0430003208BA003108B9003E29E6296300FF
:04400E00E22FFF3F5F
:00000001FF
;PIC16F887
