:1000000000308A00672900000A108A100A1182074E
:1000100043346F3475346E3474343A3400343B18DE
:100020001328081214280816831608128312BB1806
:100030001B2888121C2888168316881283123B19E5
:100040002328081324280817831608138312BB19C2
:100050002B2888132C2888178316881383120034C2
:100060003B30840083130008031943280630F8004E
:10007000F701F70B3928F80B38287B30F700F70B1E
:100080003F28800B36280034831688118312881588
:100090000430F700F70B4A284D2883168811831285
:1000A00088110330BB0030200034BA0E3A08BB0080
:1000B0000F204420BA0E3A08BB000F204420003421
:1000C000BB010F20C830BB0030208316881083127C
:1000D00088100330BB000F2044204420442002300D
:1000E000BB000F2044202C30BA0055200C30BA0041
:1000F00055200630BA0055200130BA0055208A112B
:100100000A129529AD0E2D080838AE00BB000F204D
:100110004420AD0E2D08BB000F2044200034831670
:100120008810831288143908BA0055208316881065
:100130008312881000342030B900B501B601B70130
:10014000B8013008FA002F08F9002E08F8002D0831
:10015000F7000310771CBA283108B50732080318D6
:10016000320FB60733080318330FB70734080318E4
:10017000340FB807B80CB70CB60CB50CFA0CF90C68
:10018000F80CF70CB90BA9288A110A12D829F70123
:10019000F801F901FA01C101C201C301C40140081B
:1001A0003F043E043D04031905292030C500031017
:1001B000B90DBA0DBB0DBC0DC10DC20DC30DC40DE3
:1001C00040084402031DEE283F084302031DEE28A9
:1001D0003E084202031DEE283D084102031CFF2891
:1001E0003D08C1023E08031C3E0FC2023F08031C2B
:1001F0003F0FC3024008031C400FC4020314F70D55
:10020000F80DF90DFA0DC50BD72841308400831382
:1002100000340408B1003B30B8009A30B700CA304F
:10022000B600B5010A30B3003008BC002F08BB008F
:100230002E08BA002D08B9003808C0003708BF00E2
:100240003608BE003508BD00C7200008AD00840A8E
:100250000008AE00840A0008AF00840A0008B0005D
:10026000F708031D46293308013A031946293108C6
:10027000031947290F3933020319402903184C2960
:10028000B11B4C29311B472920304829B10130309E
:10029000F7077708B9008F203808BC003708BB0083
:1002A0003608BA003508B900C001BF01BE010A30E6
:1002B000BD00C7207A08B8007908B7007808B600F2
:1002C0007708B500B30B14298A110A12FB2984019F
:1002D00083131F308305831603170908C03989006B
:1002E00003131F129F120030031788000730831278
:1002F0008700FF30880089018316031397010317D5
:100300008501831203132012200883168700FF3013
:100310008312A000A901AA01AB01AC01FF30831632
:10032000850008118312081160280130BA00552099
:1003300083160108C7393838810083128101AD0165
:100340008220AD012D08042000380319AB29AD0A25
:10035000B9008F20A229250FC529A608031DC5298C
:10036000A708031DC529A808031DC5290130A90731
:100370000318AA0A0319AB0A0319AC0A8101010880
:10038000A801A701A601A500FB290108A801A70152
:10039000A601A5002C08B0002B08AF002A08AE006B
:1003A0002908AD00B401B301B201FF30B1009B28B0
:1003B00077082507A1002608A20078080318780FFF
:1003C000A2072708A30079080318790FA3072808B4
:1003D000A4007A0803187A0FA4070630AD00822023
:1003E000413084002408B0002308AF002208AE008A
:0A03F0002108AD000929AB296300C4
:04400E00E22FFF3F5F
:00000001FF
;PIC16F887
